:020000040800F2
:10000000380A00200D0200088D380008C1300008B1
:100010006D370008790900089948000800000000C1
:10002000000000000000000000000000493B000844
:100030007D090008000000008F3800084B3B0008D5
:1000400027020008270200082702000827020008EC
:1000500027020008270200082702000827020008DC
:1000600027020008270200082702000827020008CC
:1000700027020008270200082702000827020008BC
:100080002702000827020008E107000827020008ED
:10009000270200082702000827020008270200089C
:1000A000270200082702000827020008270200088C
:1000B000270200082702000827020008270200087C
:1000C000270200082702000827020008270200086C
:1000D00027020008270200082702000889480008B4
:1000E0007F090008270200082702000827020008ED
:1000F000270200082702000827020008270200083C
:10010000270200082702000827020008270200082B
:100110002702000827020008270200088D3C00087B
:10012000270200082702000827020008270200080B
:1001300027020008270200082702000827020008FB
:1001400027020008270200082702000827020008EB
:1001500027020008270200082702000827020008DB
:1001600027020008270200082702000827020008CB
:1001700027020008270200082702000800000000EC
:1001800027020008270200082702000827020008AB
:10019000270200082702000827020008270200089B
:1001A000270200082702000827020008270200088B
:1001B000270200082702000827020008270200087B
:1001C000270200082702000800000000270200089C
:1001D000270200082702000827020008270200085B
:1001E000270200082702000827020008270200084B
:1001F0002702000827020008DFF80CD000F06EFA92
:1002000000480047815F0008380A00200648804700
:1002100006480047FEE7FEE7FEE7FEE7FEE7FEE7EB
:10022000FEE7FEE7FEE7FEE7293C0008F9010008CB
:100230002DE9F05F0546002092469B46884606461B
:10024000814640241BE0284641464746224600F0AE
:1002500065F853465A46C01A914110D311461846C4
:10026000224600F04CF82D1A67EB01084F46224653
:100270000120002100F043F817EB00094E41201E39
:10028000A4F10104DFDC484631462A464346BDE876
:10029000F09FD2B201E000F8012B491EFBD270475B
:1002A0000022F6E710B513460A4604461946FFF742
:1002B000F0FF204610BD10B5002200E0521C835C08
:1002C0008C5CA34201D1002BF8D1D8B2E1B2401A24
:1002D00010BD30B50B46014600202022012409E064
:1002E00021FA02F59D4205D303FA02F5491B04FAEF
:1002F00002F52844151EA2F10102F1DC30BD202ACE
:1003000004DB203A00FA02F1002070479140C2F16C
:10031000200320FA03F3194390407047202A04DB9E
:10032000203A21FA02F00021704721FA02F3D0406E
:10033000C2F1200291400843194670472DE9FE4F53
:10034000804681EA0300C00F0C46009021F0004176
:1003500023F00045B8EB0200A94105D240462146F2
:1003600090461C460B46024623F00040104347D0FF
:10037000270DC7F30A00C3F30A510290401A0190F7
:1003800040286BDAC3F3130040F4801B00989246B8
:1003900020B10023D2EB030A63EB0B0B0198594603
:1003A000C0F140025046FFF7AAFF06460D465046F0
:1003B0005946019A00F0A4F910EB080061410024AD
:1003C00087EA115284EAE7731A4340D0009A62B375
:1003D000019A012A4FEA075215DC001B61EB02016A
:1003E0004FF0004202EA0752CDE90042001C41F5FD
:1003F000801132462B4600F0A4F903B0BDE8F08F1F
:1004000040462146F9E7001B61EB0201001C41F563
:10041000801300185B412018A2F5001747EB030179
:1004200040EAD570B6196D4111E06D084FEA360605
:1004300045EAC0754FEA0752001B61EB0201001C40
:1004400041F5801149084FEA300000195141324608
:100450002B4603B0BDE8F04F00F064B900980122CC
:1004600040000023D0EB020263EBE07300982146CA
:100470004FEAE074B8EB000061EB0401E9E783F0B8
:1004800000435BE781F0004158E72DE9FE4F81EA28
:10049000030404F0004421F0004100944FF0000BED
:1004A00023F0004350EA01045ED052EA03045BD01B
:1004B000C3F30A54C1F30A552C44A4F2F334019453
:1004C000A0FB0254C1F3130141F48011C3F31303E1
:1004D00043F4801301FB024400FB034E840A970A95
:1004E00044EA815447EA8357A4FB076802958D0AC2
:1004F00005FB07854FEA932C04FB0C542705029D4E
:100500004FEA065847EA1637B5EB08056EEB070CBD
:10051000870E920E47EA811742EA8312A7FB020177
:10052000B6EB0B0164EB00042B0D43EA0C335E18B1
:1005300044EB1C50DA465146E7FB0201C5F31304B5
:100540004FEA0B3343EA14534FEA0432019C43EA67
:100550000603A4F10C040294009CCDE900B400F061
:10056000F0F803B0BDE8F08F00200146F9E72DE96F
:10057000F04D81EA030404F0004B21F000451446DD
:100580004FF0000A23F0004150EA050220D054EA5F
:1005900001021DD0C5F30A570246C5F31303C1F388
:1005A0001300C1F30A5640F4801543F48013A7EBFF
:1005B0000608101BD64608F2FD3873EB050002D37F
:1005C00008F1010801E092185B41B8F1000F03DA6D
:1005D00000200146BDE8F08D00204FF48011064652
:1005E00084460EE0171B73EB050705D3121B63EB64
:1005F000050306434CEA010C49084FEA3000921803
:100600005B4150EA0107EDD152EA030012D082EAC1
:10061000040083EA0501084305D0101BAB4106D254
:100620000122002306E000224FF0004302E06FF0B9
:10063000010253101AEB06004CEB085110EB0A00B4
:1006400041EB0B01BDE8F04D00F06CB870B521F046
:10065000004303430CD0C1F30A550024D5EB040535
:1006600064EB0403D617AD1AB34102DB0020014648
:1006700070BD201841EB025170BDC1F30A52C1F3A5
:10068000130140F2FF3341F480119A4202DA002054
:100690000146704740F233439A42A2F2334202DCF1
:1006A0005242FFF73BBEFFF72ABE000030B5041EE2
:1006B00071F1000404DB4FF00044404264EB01019F
:1006C000141E73F1000405DB1C464FF00043524238
:1006D00063EB0403994208BF904230BD064C074DBE
:1006E00006E0E06840F0010394E807009847103402
:1006F000AC42F6D3FFF784FDE06100080062000819
:10070000202A06DBCB17203A41FA02F043EAE073D5
:1007100006E041FA02F3D040C2F1200291400843C2
:100720001946704710B5141E73F1000408DA401C16
:1007300041F1000192185B411A4301D120F0010000
:1007400010BD2DE9F04D92469B4611B1B1FA81F2F0
:1007500002E0B0FA80F220329046FFF7D0FD044666
:100760000F4640EA0A0041EA0B0153465A46084345
:1007700013D0114653EA010019D0C8F14002504687
:10078000FFF7CCFD05460E46504659464246FFF758
:10079000B6FD084305D0012004E020463946BDE8F7
:1007A000F08D0020054346EAE0762C4337430A9853
:1007B0006305E40AA0EB08000022FD0A44EA47545E
:1007C0000A3002D500200146E9E701051019694108
:1007D000DDE9084500196941BDE8F04DA2E70000D8
:1007E00010B5034800F0F1F9024800F0EEF910BD31
:1007F000D40000201C0100205849096821F4403130
:10080000574AC2F804131146D1F804134268114341
:10081000524A11600168496821F480710268516090
:1008200001684A68016942EA012102685160016871
:10083000496821F040710268516001684968826826
:100840001143026851600168896821F400610268FF
:10085000916001688968C268114302689160414AE9
:10086000816A914218D00168896821F0706102683C
:10087000916001688968826A114302689160016829
:10088000896821F040510268916001688968C26AF4
:100890001143026891600BE00168896821F0706182
:1008A000026891600168896821F040510268916096
:1008B0000168896821F002010268916001688A6814
:1008C000816942EA4101026891602021095CA1B17D
:1008D0000168496841F40061026851600168496833
:1008E00021F460410268516001684A68416A491E0A
:1008F00042EA41310268516005E00168496821F42B
:100900000061026851600168C96A21F470010268DF
:10091000D1620168CA6A818B491E42EA01510268AC
:10092000D1620168896821F40071026891600168F0
:100930008A6890F8301042EA4121026891600168AB
:10094000896821F480610268916001688A68416960
:1009500042EA81210268916070470000042301404F
:10096000002001400100000F01468802014A1044A6
:10097000704700000000024000BFFEE7704710B55E
:100980004FF4005000F056FB10BD70477047000058
:1009900018B502460020009000BF92F83C000128E4
:1009A00001D1022018BD012082F83C0000BF086878
:1009B000092826D90868B0F1004F22D01068C06815
:1009C0000B780A3B03EB43040723A34098431368C7
:1009D000D860604B0868984207D11068C0680B7AED
:1009E00040EA03601368D8601FE00B780A3B03EB12
:1009F0004303886898401368DB6818431368D8601D
:100A000013E0106800690B7803EB43040723A3404D
:100A10009843136818610B7803EB43038868984088
:100A200013681B691843136818614868072817D2B0
:100A30001068406B0B795B1E03EB83041F23A340FC
:100A4000984313685863088880B20B795B1E03EBE8
:100A50008303984013685B6B18431368586331E055
:100A600048680D2817D21068006B0B79DB1F03EB69
:100A700083041F23A340984313681863088880B237
:100A80000B79DB1F03EB8303984013681B6B184340
:100A90001368186316E01068C06A0B790D3B03EB0E
:100AA00083041F23A34098431368D862088880B248
:100AB0000B790D3B03EB830398401368DB6A184303
:100AC0001368D862244B1068984209D10868B0F1C5
:100AD000004F05D12148006820F44000C3F804030A
:100AE0001D4B1068984208D10868122805D11B4890
:100AF000006840F48000C3F80403174B1068984264
:100B000020D1144B0868984202D00868112819D1E6
:100B10001248006840F40000104B18600D4B086844
:100B200098420FD10E4800680E4BB0FBF3F000EB7B
:100B300080004000009002E00098401E0090009865
:100B40000028F9D100BF002082F83C0000BF00BFA0
:100B500028E700001200001000200140042301409B
:100B6000C800002040420F0010B504460C49206820
:100B7000884208D10B4800F024F80B490880012076
:100B80000A4908700BE00A492068884207D10948E1
:100B900000F017F80849088001200849087010BDC6
:100BA00000200140D4000020880000208C0000209C
:100BB000002101401C0100208A0000208D0000203F
:100BC000704701460868C06C704770B50446002540
:100BD000002620680068C0F3400520684068C0F324
:100BE000401695B38EB3206C00F0100018B9206C3D
:100BF00040F4007020642068806800F04050E8B93C
:100C0000A069D8B92068C06A00F4700020B12068DB
:100C1000806800F4806088B92068406820F0200077
:100C200021684860206C20F480702064206C00F4FF
:100C3000805018B9206C40F0010020642046FFF776
:100C400093FF6FF012002168086020680068C0F30D
:100C5000800520684068C0F3C016E5B3DEB3206CA1
:100C600000F0100018B9206C40F400502064206897
:100C7000806800F4401038BB2068806B00F440109E
:100C800020B12068806800F48060E8B9206840687E
:100C900000F48060C0B92068806800F0405098B9C6
:100CA000A06988B92068406820F080002168486009
:100CB000206C20F480502064206C00F4807018B9FF
:100CC000206C40F0010020642046FFF75FFE6FF0CB
:100CD0000C00216808602068006800F001052068A9
:100CE0004068C0F3801685B17EB12068006800F0CE
:100CF000010050B1206C40F480302064204600F0A8
:100D000053F86FF001002168086020680068C0F3A4
:100D1000401520684068C0F380667DB176B1606C94
:100D200040F0020060646FF02000216808602046F7
:100D3000FFF746FF6FF020002168086070BD0000DB
:100D400070B5044600250CB9012070BD1549A06A94
:100D5000884200D000BF206C30B9204600F026F851
:100D60000020606484F83C00206C00F0100088B91A
:100D7000206C20F4885040F0020020642046FFF7E9
:100D80003BFD00206064206C20F0020040F0010078
:100D9000206400E0012500BF002084F83C0000BF73
:100DA0002846D2E70100000F7047000010B586B05A
:100DB0000446142101A8FFF773FA354920688842D8
:100DC00030D100BF3348006840F48070314908607A
:100DD0000846006800F48070009000BF00BF00BFAC
:100DE0002C481438006840F001002A491439086082
:100DF0000846006800F00100009000BF00BF10200E
:100E00000190032002900020039001A9224800F0E5
:100E10001FF900221146122000F0A0FA122000F063
:100E20008DFA33E01D49206888422FD100BF194850
:100E3000006840F40070174908600846006800F434
:100E40000070009000BF00BF00BF12481438006857
:100E500040F001000F49143908600846006800F0AE
:100E60000100009000BF00BF2020019003200290ED
:100E70000020039001A9084800F0EAF8002211467A
:100E8000122000F06BFA122000F058FA06B010BDE4
:100E9000002001404438024000000240002101408F
:100EA00008B501460020009000BF91F83C000128E1
:100EB00001D1022008BD012081F83C0000BF086874
:100EC000806800F00100A0B90868806840F0010067
:100ED0000A6890603C4800683C4AB0FBF2F000EBC6
:100EE0004000009002E00098401E0090009800280A
:100EF000F9D10868806800F00100002861D0086C12
:100F000040F20162904340F48070086408684068D1
:100F100000F4806028B1086C20F4005040F4805048
:100F20000864086C00F48050B0F5805F04D1486C10
:100F300020F00600486401E00020486400BF002063
:100F400081F83C0000BF6FF022000A68106008685A
:100F500040681F4A10430A6850601E48006800F04D
:100F60001F0058B90868806800F0405048BB086806
:100F7000806840F080400A68906022E0164A086865
:100F800090420AD10868806800F0405028B908688B
:100F9000806840F080400A6890600E48006800F069
:100FA000100070B90D4A086890420AD1086880683C
:100FB00000F0405028B90868806840F080400A6816
:100FC0009060002076E70000C800002040420F003B
:100FD00020000004042301400020014000220140C1
:100FE000014691F83500022803D080204865012091
:100FF0007047052081F835000868006820F001007E
:101000000A6810600020F3E770B5044600F032F97A
:1010100006462546681C10B104480078054400BF08
:1010200000F028F9801BA842FAD370BDC40000204C
:101030007047000010B5044604480068204020B105
:10104000024804602046FFF7F3FF10BD143C014046
:10105000F8B502460B46002100250024002000BF01
:10106000E4E0012606FA01F51E6806EA0504AC4232
:1010700071D15E68012E08D05E68022E05D05E68D0
:10108000112E02D05E68122E13D190684F000326F5
:10109000BE40B0434F00DE68BE40304390605068B1
:1010A00001268E40B0431E79C6F300168E403043B1
:1010B0005060D0684F000326BE40B0434F009E688A
:1010C000BE403043D0605E68022E02D05E68122EB1
:1010D00013D1CF0802F1200656F827004E07F70E6D
:1010E0000F26BE40B0434F07FF0E1E69BE4030437F
:1010F000CF0802F1200646F8270010684F000326AB
:10110000BE40B0431E7906F003064F00BE40304398
:1011100010605E6806F08056B6F1805FA8D100BF0F
:10112000444E366846F48046424F3E603E4636683E
:1011300006F48046009600BF00BF3F4E8F0856F869
:1011400027008E07370F0F26BE40B0433B4EB242FA
:1011500002D100262EE068E0394EB24201D10126CC
:1011600028E0384EB24201D1022623E0364EB24288
:1011700001D103261EE0354EB24201D1042619E00A
:10118000334EB24201D1052614E0324EB24201D1B3
:1011900006260FE0304EB24201D107260AE02F4E5C
:1011A000B24201D1082605E02D4EB24201D10926F6
:1011B00000E00A268F073F0FBE4030431E4E8F08C7
:1011C00046F82700274E3068A0435E6806F4803654
:1011D000B6F5803F00D12043224E3060361D306886
:1011E000A0435E6806F40036B6F5003F00D1204308
:1011F0001C4E361D3060361D3068A0435E6806F414
:101200008016B6F5801F00D12043164E0836306098
:10121000361D3068A0435E6806F40016B6F5001F60
:1012200000D120430F4E0C363060491C1029FFF4CA
:1012300018AFF8BD443802400838014000000240B1
:101240000004024000080240000C0240001002406E
:101250000014024000180240001C0240002002401E
:1012600000240240003C01400AB1816101E00B040E
:10127000836170470148006870470000BC0000208F
:101280000348006803490978084401490860704729
:10129000BC000020C400002010B5032000F09CF822
:1012A000002000F005F800F029F8002010BD000033
:1012B00070B504460E4800784FF47A71B1FBF0F037
:1012C0000C490968B1FBF0F5284601F05DF808B15A
:1012D000012070BD102C07D200222146501E00F0C4
:1012E0003DF80548046001E00120F2E70020F0E746
:1012F000C4000020C8000020C000002008B500BFC6
:101300000D48006840F080500B49086008460068AE
:1013100000F08050009000BF00BF00BF081D0068B3
:1013200040F48040091D08600846006800F48040D1
:10133000009000BF00BF08BD40380240014608468B
:10134000002809DB00F01F0301229A4043099B009B
:1013500003F1E023C3F8002100BF70472DE9F05FDF
:1013600080460D461646002703F09CFB074639468B
:101370002A46334601F00700C0F1070ABAF1040F0C
:1013800002D94FF0040A01E0C0F1070AD14600F18A
:10139000040ABAF1070F02D24FF0000A01E0A0F1EF
:1013A000030AD4464FF0010A0AFA09FAAAF1010A1F
:1013B0000AEA020A0AFA0CFA4FF0010B0BFA0CFBCC
:1013C000ABF1010B0BEA030B4AEA0B042146404642
:1013D00003F070FBBDE8F09F00BF00F00702064B72
:1013E00019684FF6FF031940044B0B4343EA0221EF
:1013F000014B196000BF70470CED00E00000FA05DA
:1014000038B5002400BF2048006840F080501E49D5
:1014100008600846006800F08050009000BF00BFE0
:101420001A48006840F4803018490860FFF722FF2E
:10143000044607E0FFF71EFF001BB0F57A7F01D9D5
:10144000032038BD1148406800F48030B0F5803F7B
:10145000F0D10E48006840F400300C490860FFF7F6
:1014600009FF044607E0FFF705FF001BB0F57A7F90
:1014700001D90320E5E70548406800F40030B0F5E5
:10148000003FF0D10020DCE740380240007000400F
:101490002DE9F8430446002600250027A846A94662
:1014A000207800F0010088B100BFFE48006820F4F9
:1014B0000000FC49086008460068616B0843F94970
:1014C000086000BF606B08B94FF00108206800F4A5
:1014D0000020B0F5002F13D1F2488430006820F4CA
:1014E0004010E16B0843EF4984310860E06BB0F5D0
:1014F000801F01D14FF00108E06B08B94FF00109DE
:10150000206800F48010B0F5801F13D1E5488430C6
:10151000006820F44000216C0843E24984310860EF
:10152000206CB0F5800F01D14FF00108206C08B994
:101530004FF00109206800F08070B0F1807F01D188
:101540004FF00108207800F02000202870D100BF63
:10155000D4483830006840F08050D24938310860B3
:101560000846006800F08050009000BF00BFCE48E1
:10157000006840F48070CC490860FFF77BFE0646A7
:1015800007E0FFF777FE801B642802D90320BDE83F
:10159000F883C548006800F480700028F1D0C14885
:1015A0006830006800F4407585B3208E00F4407008
:1015B000A8422BD0BB486830006820F44075B94879
:1015C0006830006840F48030B649683108600846E9
:1015D000006820F48030086008460560006800F06C
:1015E000010098B1FFF746FE064608E0FFF742FE0D
:1015F000801B41F28831884201D90320C7E7A948FE
:1016000068300068C0F340000028EFD000BF208E93
:1016100000F44070B0F5407F0BD1A248006820F480
:10162000F810A24A216B114008439E49086006E069
:1016300010E09C48006820F4F8109A490860994826
:1016400068300068218EC1F30B0108439549683169
:10165000086000BF207800F01000102810D100BFF3
:1016600090488430006820F080708E498431086092
:1016700008460068A16B08438A498431086000BFAE
:10168000208800F48040B0F5804F09D1854888302B
:10169000006820F44030616E084382498831086058
:1016A000208800F40040B0F5004F09D17D48883013
:1016B000006820F44020A16E08437A498831086010
:1016C000206800F48030B0F5803F09D1754888303B
:1016D000006820F44010E16E0843724988310860C8
:1016E000206800F40030B0F5003F09D16D48883023
:1016F000006820F44000216F08436A49883108607F
:10170000207800F04000402809D166488830006801
:1017100020F00300616C084362498831086020783A
:1017200000F08000802809D15E488830006820F0F1
:101730000C00A16C08435B4988310860208800F4E4
:101740008070B0F5807F09D156488830006820F05D
:101750003000E16C0843534988310860208800F468
:101760000070B0F5007F09D14E488830006820F045
:10177000C000216D08434B4988310860208800F47F
:101780008060B0F5806F09D146488830006820F449
:101790004070616D0843434988310860208800F437
:1017A0000060B0F5006F09D13E488830006820F431
:1017B0004060A16D08433B4988310860208800F4EF
:1017C0008050B0F5805F09D136488830006820F439
:1017D0004050E16D0843334988310860208800F4A7
:1017E0000050B0F5005F09D12E488830006820F421
:1017F0004040216E08432B4988310860206800F47E
:101800008000B0F5800F09D126488830006820F0AC
:101810008060A16F0843234988310860206800F484
:101820000010B0F5001F0FD11E488830006820F06E
:101830000060E16F08431B4988310860E06FB0F138
:10184000006F01D14FF00109207800F0080008284E
:1018500001D14FF00109206800F48020B0F5802FFD
:1018600009D110488830006820F04070616F08434B
:101870000C4988310860206800F40000B0F5000FC2
:101880000AD108488830006820F08050D4F88010D1
:101890000843044988310860206800F08060B0F196
:1018A000806F05E00838024000700040FFFCFF0F29
:1018B00008D1CC48006820F00050D4F884100843C8
:1018C000C8490860206800F00060B0F1006F0AD1DC
:1018D000C448001F006820F00070D4F88810084346
:1018E000C049091F0860206800F08050B0F1805F97
:1018F0000AD1BC48001F006820F08060D4F88C102A
:101900000843B849091F0860B8F1010F03D02068E7
:10191000B0F1007F7ED1B3489038006820F080603D
:10192000B04990390860FFF7A5FC064606E0FFF7CE
:10193000A1FC801B642801D9032028E6A94890381F
:101940000068C0F3C0600028F1D1207800F00100E9
:10195000B8B1606BA8B9A3480C380068C0F3014562
:10196000A0480C380068C0F303676068800140EA53
:10197000054040EA0761207A41EA007099490C3934
:101980000860206800F40020B0F5002F03D1E06B60
:10199000B0F5801F09D0206800F48010B0F5801FDA
:1019A00024D1206CB0F5800F20D18E480C3800680F
:1019B000C0F301458B480C380068C0F302776068BB
:1019C000800140EA0541207B41EA006040EA07705F
:1019D00084490C3908608348001F006820F01F000C
:1019E000616A491E08437F49091F0860206800F0AA
:1019F0008070B0F1807F17D17A480C380068C0F34E
:101A0000036578480C380068C0F30277606881018C
:101A1000208A00E036E041EA004040EA056040EA02
:101A2000077070490C390860206800F00070B0F150
:101A3000007F0DD160688101208A41EA0041207B4E
:101A400041EA0061207A41EA007066490C39086079
:101A500064489038006840F08060624990390860BE
:101A6000FFF708FC064606E0FFF704FC801B64282D
:101A700001D903208BE55B4890380068C0F3C06053
:101A80000028F1D0B9F1010F7ED156489038006896
:101A900020F08050534990390860FFF7EBFB064671
:101AA00006E0FFF7E7FB801B642801D903206EE501
:101AB0004C4890380068C0F340700028F1D120688D
:101AC00000F40020B0F5002F01D1E06B38B12068A0
:101AD00000F48010B0F5801F22D1206C00BB41487B
:101AE00008380068C0F301453E4808380068C0F374
:101AF00002776069800140EA0541207E41EA00608A
:101B000040EA0770374908390860081D006820F46A
:101B1000F851A06A401E41EA00203249091F0860BE
:101B2000206800F40010B0F5001F19D1E06FB0F18B
:101B3000006F15D12B4808380068C0F303652948A9
:101B400008380068C0F3027760698101208C41EA9F
:101B5000004040EA056040EA077022490839086001
:101B6000207800F00800082820D11E4808380068B6
:101B7000C0F303651B4808380068C0F3014760697B
:101B8000800140EA074000E02AE040EA0561207F4A
:101B900041EA0070134908390860081D006820F404
:101BA0004030E16A08430F49091F08600D4890382A
:101BB000006840F080500B4990390860FFF75AFBED
:101BC000064606E0FFF756FB801B642801D9032078
:101BD000DDE4044890380068C0F340700028F1D07C
:101BE0000020D4E49038024070B504460D4600262B
:101BF0000CB9012070BD5C48006800F00F00A842DD
:101C00000ED25948006820F00F002843564908605A
:101C10000846006800F00F00A84201D00120E9E763
:101C2000207800F0020002281DD1207800F0040086
:101C3000042805D14D48006840F4E0504B49086045
:101C4000207800F00800082805D14848006840F4D2
:101C50006040464908604548006820F0F000A168EF
:101C6000084342490860207800F0010090B36068A2
:101C7000012807D13D4808380068C0F34040A0B9AA
:101C80000120B7E76068022807D1384808380068A3
:101C9000C0F3406048B90120ACE734480838006818
:101CA000C0F3400008B90120A4E73048006820F0E4
:101CB0000300616808432D490860FFF7DBFA064618
:101CC00009E0FFF7D7FA801B41F28831884202D938
:101CD00003208FE707E02548006800F00C006168EA
:101CE000B0EB810FEDD12048006800F00F00A84252
:101CF0000ED91D48006820F00F0028431A490860DB
:101D00000846006800F00F00A84201D0012071E7EA
:101D1000207800F00400042807D11448006820F45B
:101D2000E050E168084311490860207800F008009D
:101D3000082808D10D48006820F46040216940EA75
:101D4000C1000A49086000F03FF808490968C1F37A
:101D50000311074A515CC8400649086006480068FC
:101D6000FFF7A6FA002045E7003C02400838024091
:101D700032610008C8000020C0000020014800684F
:101D800070470000C800002000B5FFF7F7FF0449C6
:101D90000968C1F38221034A515CC84000BD0000BC
:101DA000083802404261000800B5FFF7E7FF044928
:101DB0000968C1F34231034A515CC84000BD0000CC
:101DC00008380240426100082DE9F0470024002550
:101DD0000026A1462548006800F00C0020B1042828
:101DE00005D008283AD105E0DFF8849039E0DFF823
:101DF000809036E01D48001F006800F03F041B483B
:101E0000001F006800F4800078B119481749091FC5
:101E10000968C1F38811A0FB017001462246002326
:101E20003846FEF705FA05460EE011480F49091F2E
:101E30000968C1F38811A0FB017001462246002306
:101E40003846FEF7F5F905460848001F0068C0F35C
:101E50000140401C4600B5FBF6F902E0DFF81090A7
:101E600000BF00BF4846BDE8F087000008380240C8
:101E70000024F400F8B5044600270CB90120F8BD91
:101E8000207800F00100002871D0F948006800F0C7
:101E90000C0004280DD0F648006800F00C0008285B
:101EA00013D1F348001F006800F48000B0F5800FE4
:101EB0000BD1EF4808380068C0F34040002869D0D3
:101EC0006068002866D10120D9E700BF6068B0F5DE
:101ED000803F08D1E6480838006840F48030E44983
:101EE000083908602EE0606868B9E1480838006881
:101EF00020F48030DE49083908600846006820F484
:101F0000802008601EE06068B0F5A02F0DD1D84891
:101F10000838006840F48020D54908390860084630
:101F2000006840F4803008600CE0D1480838006850
:101F300020F48030CE49083908600846006820F453
:101F40008020086000BF606890B1FFF793F90546F4
:101F500006E0FFF78FF9401B642801D903208EE7C4
:101F6000C34808380068C0F340400028F1D011E0B1
:101F7000FFF780F9054606E0FFF77CF9401B64286F
:101F800001D903207BE7BA4808380068C0F3404015
:101F90000028F1D1207800F00200022869D1B4486D
:101FA000006800F00C0058B1B148006800F00C0067
:101FB00008281CD1AE48001F006800F48000B0B9AA
:101FC000AB4808380068C0F3400020B1E068012841
:101FD00001D0012053E7A6480838006820F0F80037
:101FE000216940EAC100A2490839086041E0E0687F
:101FF00028B39F480838006840F001009C49083920
:102000000860FFF737F9054606E0FFF733F9401B94
:10201000022801D9032032E7954808380068C0F348
:1020200040000028F1D092480838006820F0F800FD
:10203000216940EAC1008E490839086019E08C48DE
:102040000838006820F00100894908390860FFF766
:1020500011F9054606E0FFF70DF9401B022801D9EA
:1020600003200CE7824808380068C0F340000028CD
:10207000F1D1207800F00800082836D16069D0B18D
:102080007B486C30006840F0010079496C31086091
:10209000FFF7F0F8054606E0FFF7ECF8401B0228D2
:1020A00001D90320EBE672486C300068C0F34000B1
:1020B0000028F1D019E06E486C30006820F0010073
:1020C0006B496C310860FFF7D5F8054606E0FFF76D
:1020D000D1F8401B022801D90320D0E664486C30B7
:1020E0000068C0F340000028F1D1207800F004001F
:1020F000042874D15E483830006800F0805080B900
:1021000000BF5B483830006840F080505849383193
:1021100008600846006800F08050009000BF00BFD3
:1021200001275448006800F48070B0B95148006835
:1021300040F480704F490860FFF79CF8054606E0C0
:10214000FFF798F8401B642801D9032097E6494817
:10215000006800F480700028F2D000BFA068012859
:1021600008D143486830006840F0010040496831B8
:1021700008602DE0A06868B93D486830006820F02C
:1021800001003B49683108600846006820F00400FF
:1021900008601DE0A06805280DD13548683000684A
:1021A00040F004003249683108600846006840F099
:1021B000010008600CE02E486830006820F0010043
:1021C0002B49683108600846006820F00400086068
:1021D00000BFA068A8B1FFF74DF8054609E02EE062
:1021E000FFF748F8401B41F28831884201D90320AB
:1021F00045E61F4868300068C0F340000028EFD073
:1022000013E0FFF737F8054608E0FFF733F8401B07
:1022100041F28831884201D9032030E61448683001
:102220000068C0F340000028EFD1012F07D110480B
:102230003830006820F080500D4938310860A069BE
:10224000002854D00A48006800F00C00082867D025
:10225000A06902284CD106480838006820F0807038
:10226000034908390860FFF705F805460BE0000050
:102270000838024000700040FEF7FCFF401B0228B7
:1022800001D90320FBE53F480068C0F34060002807
:10229000F2D1D4E907010843616A40EA81110122C1
:1022A000A06AC2EB500041EA00412C20005D41EAE7
:1022B00000613020005D41EA00703249091D08606C
:1022C000081F006840F08070091F0860FEF7D2FF09
:1022D000054606E0FEF7CEFF401B022801D9032089
:1022E000CDE528480068C0F340600028F2D047E000
:1022F0002448006820F0807022490860FEF7BAFF89
:10230000054606E0FEF7B6FF401B022801D9032070
:10231000B5E51C480068C0F340600028F2D12FE00A
:102320001848001D0668A069012827D006F480011E
:10233000E069814222D106F03F01206A81421DD12D
:1023400047F6C0703040616AB0EB811F16D106F4C9
:1023500040310122A06AC2EB5000B1EB004F0DD119
:1023600006F070612C20005DB1EB006F06D106F025
:10237000E0413020005DB1EB007F01D001207EE51F
:1023800000207CE50038024070B504462546681EF2
:10239000B0F1807F01D301200FE0681E4FF0E021F3
:1023A00048610F214FF0FF3002F084FB00204FF016
:1023B000E021886107200861002070BD70477047E8
:1023C0007047000030B502460B4600BF92F83C0053
:1023D000012801D1022030BD012082F83C0000BF5D
:1023E000022082F83D001068416810688468214D21
:1023F0001068A84203D0204D1068A84203D121F4F0
:1024000070015868014321F0700118680143106899
:102410004160184D1068A8421BD01068B0F1804F81
:1024200017D0164D1068A84213D0154D1068A84259
:102430000FD0144D1068A8420BD00F4D1068A84261
:1024400007D0114D1068A84203D0104D1068A84263
:1024500005D124F08004986804431068846001204A
:1024600082F83D0000BF002082F83C0000BF00BFA2
:10247000B1E70000000001400004014000040040FA
:1024800000080040000C00400040014000180040DF
:1024900010B504460CB9012010BD94F83D0028B9D0
:1024A000002084F83C00204600F00CF8022084F85C
:1024B0003D00211D206801F0F1FB012084F83D0062
:1024C0000020E9E738B504461F49206888420DD14D
:1024D00000BF1E48006840F002001C490860084622
:1024E000006800F00200009000BF2BE0184920684F
:1024F00088420DD100BF1548006840F00400134920
:1025000008600846006800F00400009000BF19E071
:1025100010492068884215D100BF0C48006840F07F
:1025200020000A4908600846006800F0200000907A
:1025300000BF00BF002211463720FEF70FFF3720F3
:10254000FEF7FCFE38BD00000004004040380240A9
:1025500000080040001400400146022081F83D00C0
:1025600008688068094B00EA0302062A08D0B2F521
:10257000803F05D00868006840F001000B681860D3
:10258000012081F83D000020704700000700010095
:102590002DE9F04104460D4600BF94F83C000128A7
:1025A00002D10220BDE8F081012084F83C0000BF88
:1025B000022084F83D00206886683748064026F4EB
:1025C0007F46206886602868502833D00CDC20289D
:1025D00050D004DC00284BD0102851D149E03028DD
:1025E00049D040284CD139E060282DD0702807D040
:1025F000B0F5805F03D0B0F5005F41D10DE040E061
:10260000D5E902136A68206801F0C5FB2068866876
:1026100046F077062068866033E0D5E902136A68E1
:10262000206801F0B8FB2068806840F48040216891
:10263000886026E0EA686968206801F0F7FC5021AC
:10264000206801F0B3FB1CE0EA686968206801F0CB
:1026500000FD6021206801F0A9FB12E0EA686968CA
:10266000206801F0E3FC4021206801F09FFB08E0B6
:1026700000BF00BF00BF2968206801F097FB00E0A1
:1026800000BF00BF012084F83D0000BF002084F897
:102690003C0000BF00BF85E788FFFEFF704710B514
:1026A000044620680069C0F34000D8B12068C068C3
:1026B000C0F34000B0B16FF0020021680861012052
:1026C00020772068806900F0030018B12046FFF7EA
:1026D000E5FF05E0204600F013F9204600F0E6F99A
:1026E0000020207720680069C0F38000D8B12068FE
:1026F000C068C0F38000B0B16FF0040021680861C9
:10270000022020772068806900F4407018B12046CC
:10271000FFF7C4FF05E0204600F0F2F8204600F085
:10272000C5F90020207720680069C0F3C000D8B147
:102730002068C068C0F3C000B0B16FF00800216825
:102740000861042020772068C06900F0030018B1F8
:102750002046FFF7A3FF05E0204600F0D1F8204611
:1027600000F0A4F90020207720680069C0F3001071
:10277000D8B12068C068C0F30010B0B16FF010008D
:1027800021680861082020772068C06900F4407043
:1027900018B12046FFF782FF05E0204600F0B0F8B0
:1027A000204600F083F9002020772068006900F0BF
:1027B000010058B12068C06800F0010030B16FF02E
:1027C000010021680861204600F0A4F92068006932
:1027D000C0F3C01058B12068C068C0F3C01030B159
:1027E0006FF08000216808612046FFF7E8FD20684F
:1027F0000069C0F3002058B12068C068C0F3C01061
:1028000030B16FF48070216808612046FFF7D6FD73
:1028100020680069C0F3801058B12068C068C0F318
:10282000801030B16FF0400021680861204600F050
:1028300099F920680069C0F3401058B12068C06859
:10284000C0F3401030B16FF02000216808612046CD
:10285000FFF7B6FD10BD000010B586B00446142188
:1028600001A8FDF71DFD2149206888421BD100BF4A
:102870001F48006840F001001D49086008460068D4
:1028800000F00100009000BF00BFC02001900220B6
:1028900002900020039004900220059001A91548A1
:1028A000FEF7D6FB1FE01449206888421BD100BF09
:1028B0000F48006840F008000D49086008460068AD
:1028C00000F00800009000BF00BF4FF4E04001900E
:1028D000022002900020039004900220059001A99C
:1028E0000648FEF7B5FB06B010BD0000000400402E
:1028F000303802400000024000080040000C024056
:10290000704770B504460D46164600BF94F83C006B
:10291000012801D1022070BD012084F83C0000BFD5
:10292000022084F83D000C2E51D005DC4EB1042E5F
:102930001ED0082E7AD133E0102E60D0142EF9D19B
:1029400075E02946206801F03BFA2068806940F074
:102950000800216888612068806920F004002168EF
:10296000886120688069296908432168886177E067
:102970002946206801F05EFA2068806940F4006012
:10298000216888612068806920F4806021688861FE
:1029900020688069296940EA0120216888615FE038
:1029A0002946206801F086FA2068C06940F00800D6
:1029B0002168C8612068C06920F004002168C861EE
:1029C0002068C069296908432168C86148E0294630
:1029D000206801F0ADFA2068C06940F40060216809
:1029E000C8612068C06920F480602168C8612068DF
:1029F000C069296940EA01202168C86130E02946A0
:102A0000206801F0C1FA2068406D40F0080021689C
:102A100048652068406D20F0040021684865206802
:102A2000406D296908432168486519E017E0294687
:102A3000206801F0D1FA2068406D40F40060216800
:102A400048652068406D20F48060216848652068F2
:102A5000406D296940EA01202168486500E000BF17
:102A600000BF012084F83D0000BF002084F83C0036
:102A700000BF00BF4FE710B504460CB9012010BDE0
:102A800094F83D0028B9002084F83C00204600F06E
:102A90000CF8022084F83D00211D206801F0FEF8AA
:102AA000012084F83D000020E9E7704770470000EE
:102AB00070B504460E4601223146206801F05AF9ED
:102AC00011492068884203D010492068884201D10A
:102AD000012000E0002028B12068406C40F4004054
:102AE0002168486420688068094900EA0105062DCC
:102AF00008D0B5F5803F05D02068006840F001009F
:102B000021680860002070BD000001400004014001
:102B10000700010010B52DED028B04462068B0F1CE
:102B2000804F14D19FED0B0AB0EE408A012211466E
:102B30000948FEF799FB0948FEF7B2F90848FEF785
:102B4000AFF9002201210448FEF78EFB00BFBDEC67
:102B5000028B10BD0000000000040240D4000020E1
:102B60001C01002070477047704700002DE9F047B6
:102B700004462068C569206806682068876840F6B2
:102B80000F0005EA0008B8F1000F0CD105F0200095
:102B900048B106F0200030B1206E10B12046216E01
:102BA0008847BDE8F087B8F1000F7DD007F001003D
:102BB00018B906F490700028F7D005F0010048B16C
:102BC00006F4807030B1012021680862E06F40F0A7
:102BD0000100E06705F0020048B107F0010030B1E4
:102BE000022021680862E06F40F00400E06705F011
:102BF000040048B107F0010030B1042021680862E8
:102C0000E06F40F00200E06705F0080060B106F0F8
:102C1000200010B907F0010030B1082021680862D7
:102C2000E06F40F00800E06705F4006050B106F086
:102C3000806038B14FF4006021680862E06F40F0B6
:102C40002000E067E06F80B305F0200038B106F0A7
:102C5000200020B1206E10B12046216E8847D4F8A4
:102C60007C902068806800F04000402802D009F085
:102C7000280030B3204601F00BFB2068806800F08C
:102C80004000402819D12068806820F04000216869
:102C90008860E06E68B12148E16E0865E06EFEF77D
:102CA0009FF910B1E06E01E011E00FE0016D88477F
:102CB0000CE02046FFF758FF08E02046FFF754FFDE
:102CC00004E02046FFF750FF0020E06769E705F4C5
:102CD000801050B107F4800038B14FF480102168A3
:102CE00008622046FFF73FFF5BE705F0800040B138
:102CF00006F0800028B1606E10B12046616E8847F2
:102D00004FE705F0400030B106F0400018B1204612
:102D100001F0CFFA45E700BF43E700007942000821
:102D200010B504460CB9012010BDA06900B100E047
:102D300000BF606F28B9002084F87000204600F0C2
:102D400029F8242060672068006820F001002168CD
:102D50000860204601F028FB012800D1E4E7606A02
:102D600010B1204601F0D5F92068406820F4904069
:102D7000216848602068806820F02A002168886007
:102D80002068006840F0010021680860204601F0DA
:102D90003CFAC9E710B586B00446142101A8FDF736
:102DA0007FFA1D492068884234D100BF1B48006863
:102DB00040F48020194908600846006800F480202B
:102DC000009000BF00BF00BF14481038006840F0FA
:102DD00008001249103908600846006800F0080031
:102DE000009000BF00BF4FF440700190022002909D
:102DF00000200390032004900720059001A90848B3
:102E0000FEF726F9002211462720FEF7A7FA272011
:102E1000FEF794FA06B010BD00480040403802406A
:102E2000000C024010B50346986F202865D101B10F
:102E30000AB9012010BD00BF93F87000012801D12C
:102E40000220F7E7012083F8700000BF5965A3F85E
:102E50005820A3F85A200020186600BF9868B0F5E3
:102E6000805F0AD1186920B940F2FF10A3F85C0016
:102E700020E0FF20A3F85C001CE0986848B91869BE
:102E800018B9FF20A3F85C0014E07F20A3F85C00D1
:102E900010E09868B0F1805F09D1186918B97F20F7
:102EA000A3F85C0006E03F20A3F85C0002E00020ED
:102EB000A3F85C0000BF0020D8672220986718683C
:102EC000806840F001001C68A0609868B0F5805FE1
:102ED00004D1186910B90A48186601E00948186653
:102EE00000BF002083F8700000BF1868006840F43D
:102EF00090701C68206000209CE702209AE7000088
:102F0000D34200083F43000810B504460649206834
:102F1000884207D10120054908700122044905486B
:102F2000FFF780FF10BD0000004800409300002024
:102F300092000020B40500202DE9F84F04460E460B
:102F400017469946606F20285DD106B117B9012058
:102F5000BDE8F88F00BF94F87000012801D102206D
:102F6000F6E7012084F8700000BF0020E067212010
:102F70006067FEF77FF98246A4F85070A4F852709B
:102F8000A068B0F5805F04D1206910B90025B04673
:102F900002E035464FF0000800BF002084F87000C2
:102FA00000BF1DE05346002280212046CDF800904E
:102FB00001F010FC08B10320CAE745B9B8F80000D9
:102FC000C0F308002168886208F1020803E028784D
:102FD000216888626D1CB4F85200401EA4F85200AB
:102FE000B4F852000028DDD153460022402120468B
:102FF000CDF8009001F0EEFB08B10320A8E72020F7
:1030000060670020A4E70220A2E7000010B5034695
:10301000586F202830D101B10AB9012010BD00BF7E
:1030200093F87000012801D10220F7E7012083F80E
:10303000700000BFD964A3F85020A3F852200020EC
:103040005866D867212058679868B0F5805F04D12A
:10305000186910B90948586601E00948586600BF68
:10306000002083F8700000BF1868006840F08000FE
:103070001C6820600020D1E70220CFE751470008FC
:103080009547000870B504460A492068884210D167
:1030900000F0F4FF05B205F13D0030B106490D70B6
:1030A00001220648FFF7B2FF02E000200249087043
:1030B00000BF70BD004800409A000020B405002009
:1030C00000BFFEE72DE9F041054600260027002459
:1030D00000E0641C285D0028FBD1641E47E0285DE9
:1030E00030281DDB285D39281ADC00EE107AB8EE96
:1030F000C01BB3EE000B01F0F3FCB0EE401B285DEB
:10310000303800EE100AB8EEC02B00EE106AB8EEB0
:10311000C00B02EE010BBDEEC00B10EE106A24E0F6
:10312000285D41281DDB285D46281ADC00EE107A58
:10313000B8EEC01BB3EE000B01F0D2FCB0EE401BAA
:10314000285D373800EE100AB8EEC02B00EE106A8A
:10315000B8EEC00B02EE010BBDEEC00B10EE106A14
:1031600003E04FF0FF30BDE8F0817F1C641E002CAF
:10317000B5DA3046F7E700001FB500200090019057
:10318000029003901548164908604FF4803048605B
:103190000021134881600161816180F82010C162C3
:1031A000104981620021C1600121C161002180F8C4
:1031B000301001214161FDF7C3FD08B1FDF7E5FBCA
:1031C00004200090012001900020029069460448EC
:1031D000FDF7DEFB08B1FDF7D8FB1FBD0020014065
:1031E000D40000200100000F1FB5002000900190C6
:1031F000029003901548164908604FF480304860EB
:103200000021134881600161816180F82010C16252
:10321000104981620021C1600121C161002180F853
:10322000301001214161FDF78BFD08B1FDF7ADFBC9
:10323000052000900120019000200290694604487A
:10324000FDF7A6FB08B1FDF7A0FB1FBD0021014063
:103250001C0100200100000F00B587B0142102A856
:10326000FDF71EF800BF4E48006840F004004C49CE
:1032700008600846006800F00400019000BF00BF2D
:1032800000BF0846006840F001000860084600687A
:1032900000F00100019000BF00BF00BF08460068B9
:1032A00040F0020008600846006800F0020001904B
:1032B00000BF00BF00BF0846006840F04000086043
:1032C0000846006800F04000019000BF00BF00BF4A
:1032D0000846006840F0100008600846006800F0EA
:1032E0001000019000BF00BF00BF0846006840F01A
:1032F000080008600846006800F00800019000BF60
:1033000000BF002244F281012648FDF7ADFF0022F4
:1033100040212548FDF7A8FF4FF4005002902348B4
:1033200003900020049002A92148FDF791FE44F289
:10333000810002900120039000200490059002A9D2
:103340001848FDF785FE832002900020039004902A
:1033500002A91548FDF77CFE4FF480700290022010
:1033600003900020049005900120069002A91148C6
:10337000FDF76EFE40200290012003900020049093
:10338000059002A90848FDF763FE00221146282097
:10339000FDF7E4FF2820FDF7D1FF07B000BD0000D6
:1033A00030380240000402400018024000001110B2
:1033B000000802400010024000B58FB000200B90C2
:1033C0000C900D900E90089009900A901C2101A875
:1033D000FCF766FF2448254908600020486020214A
:1033E0002248816040F68B21C1600021016181612A
:1033F000FFF74EF808B1FDF7C8FA4FF480500B9074
:103400000BA91A48FFF7C4F808B1FDF7BEFA174830
:10341000FFF731FB08B1FDF7B8FA002008900A90D9
:1034200008A91248FEF7CEFF08B1FDF7AEFA6020FA
:1034300001900020029003900590002201A90B4802
:10344000FFF75FFA08B1FDF7A0FA0220039004220B
:1034500001A90648FFF755FA08B1FDF796FA0348A7
:10346000FFF7FAF90FB000BD00040040F40200209D
:1034700000B58FB000200B900C900D900E9008902E
:1034800009900A901C2101A8FCF70AFF29482A4943
:1034900008600020486020212748816040F68B2189
:1034A000C160002101618161FEF7F2FF08B1FDF703
:1034B0006CFA4FF480500B900BA91F48FFF768F887
:1034C00008B1FDF762FA1C48FFF7D5FA08B1FDF71D
:1034D0005CFA002008900A9008A91748FEF772FFCE
:1034E00008B1FDF752FA602001900020029003908D
:1034F0000590002201A91048FFF703FA08B1FDF773
:1035000044FA02200390042201A90B48FFF7F9F9BD
:1035100008B1FDF73AFA00200390082201A90648F5
:10352000FFF7EFF908B1FDF730FA0348FFF794F918
:103530000FB000BD00080040340300200EB500208D
:103540000090019002900F480F49086000204860E9
:1035500000210D48816045F25F41C1600021816119
:10356000FEF796FF08B1FDF710FA2020009000202A
:10357000029069460448FEF725FF08B1FDF705FAF9
:103580000EBD0000001400407403002010B50D486B
:103590000D4908604FF4E130486000210A4881601D
:1035A000C16001610C21416100218161C161016241
:1035B0000020054948620846FFF7B2FB08B1FDF755
:1035C000E4F910BD00480040B405002070B588B093
:1035D000202106A800F070FA06A8FFF773FD044644
:1035E000601C30B10B2C04DAE0B2FDF7BDF90646E1
:1035F0000BE01AA000F07CFD01221C491C48FFF7DB
:1036000005FD4FF0FF3008B070BD0D2106A800F099
:1036100053FA06A8FFF756FDC5B2FF2D04DC01954D
:103620000020029003900AE012A000F061FD012248
:103630000E490F48FFF7EAFC4FF0FF30E3E701A91E
:103640003046FDF705FD10A000F052FD01220749AC
:103650000748FFF7DBFC0020D5E700006572726FBA
:1036600020706F72745F6164647221009A000020A0
:10367000B4050020206572726F2070696E5F7365FB
:103680007474696E672000003E4D414B45205049DF
:103690004E20494E505554200D0A000070B588B098
:1036A000202106A800F008FA06A8FFF70BFD044643
:1036B000601C30B10B2C04DAE0B2FDF755F9064678
:1036C0000BE01AA000F014FD01221C491C48FFF772
:1036D0009DFC4FF0FF3008B070BD0D2106A800F032
:1036E000EBF906A8FFF7EEFCC5B2FF2D05DC01954E
:1036F00001200290002003900AE012A000F0F8FCE4
:1037000001220E490E48FFF781FC4FF0FF30E2E73F
:1037100001A93046FDF79CFC0FA000F0E9FC012256
:1037200006490748FFF772FC0020D4E76572726F04
:1037300020706F72745F6164647221009A000020CF
:10374000B4050020206572726F2070696E5F73652A
:103750007474696E672000003E4D414B452050490E
:103760004E204F5554505554200D0A0000BFFEE71F
:103770007CB52021684600F09FF96846FFF7A2FC5F
:103780000646701C30B14FF6FF70864202DA1648CA
:1037900035180AE015A000F0ABFC012217491848C3
:1037A000FFF734FC4FF0FF307CBD0D21684600F080
:1037B00083F96846FFF786FC04B2601C58B1FF2C01
:1037C00009DC002004E029780DF800106D1C401C75
:1037D000A042F8DB02E04FF0FF30E5E7694609A0C0
:1037E00001F038F90020DFE7000002204144445294
:1037F000455353204552524F520D00009A0000206D
:10380000B4050020257300002DE9FC412021684605
:1038100000F052F96846FFF755FC0746781C30B1B6
:103820004FF6FF70874202DA17483E1803E04FF068
:10383000FF30BDE8FC810021684600F03DF9684694
:10384000FFF740FC04B2601C08B1FF2C02DD4FF012
:10385000FF30EEE70D21684600F02EF96846FFF7CD
:1038600031FC05B2681C48B1FF2D07DC002002E0E6
:103870003570761C401CA042FADB02E04FF0FF30AE
:10388000D7E70020D5E7000000000220704770470E
:1038900010B50DA000F02CFC0DA000F029FC0EA02E
:1038A00000F026FC0EA000F023FC0FA000F020FC8E
:1038B0000FA000F01DFC10A000F01AFC012210491E
:1038C0001048FFF7A3FB10BD4D52200D0000000073
:1038D0004D57200D000000004D49200D0000000054
:1038E0004D4F200D000000005244200D000000004C
:1038F0005744200D00000000564552200D000000E6
:103900009A000020B405002010B50348018803A0E8
:1039100001F0A0F810BD00008800002041444331B0
:10392000203D2025640D0A0010B505A000F0E0FB45
:1039300001220D490D48FFF769FB002010BD000072
:103940000D203E205620322E3920677275706F2070
:1039500037204C50492D4949204445494320554D75
:1039600032303230200D00009A000020B4050020D3
:103970002DE9FC412021684600F09EF86846FFF7DB
:10398000A1FB0446601C30B10B2C04DAE0B2FCF75A
:10399000EBFF06460BE01BA000F0AAFB01221D492D
:1039A0001D48FFF733FB4FF0FF30BDE8FC810D21D0
:1039B000684600F081F86846FFF784FBC5B2FF2D2A
:1039C00003DC306900EA05070AE014A000F090FB70
:1039D000012210491048FFF719FB4FF0FF30E4E7D0
:1039E00013A000F085FB01220A490B48FFF70EFBEC
:1039F0000520FDF709FB394613A001F02BF8002044
:103A0000D3E700006572726F20706F72745F61643B
:103A1000647221009A000020B40500206572726F64
:103A20002070696E5F73657474696E6721000000B1
:103A30002052454144204449474954414C20494E75
:103A4000505554202D2000000D257800094800789D
:103A5000094A1278904202D16FF03C007047074843
:103A6000054A1278815C04480078401C024A1070B4
:103A70000846F3E79100002090000020B4030020E6
:103A800001460A4800780A4A1278801AFF2802DDA7
:103A90006FF0400070470748044A12788154034889
:103AA0000078401C014A10700020F3E791000020CC
:103AB00090000020B40300202DE9F04105460F4698
:103AC0000026012405E0FFF7C1FF0446AC55701C39
:103AD000C6B2BC4205D00D2C03D004F13D00002835
:103AE000F1D10021701E2954BDE8F08110B51348B2
:103AF000007810B96FF0450010BD00200F49087024
:103B000002F0C4FA08B90020F6E70D480078FFF784
:103B1000B7FF0B4800780D2805D10020FFF7B0FF54
:103B20000120084908700748007820B100200549A5
:103B3000087000F0B3FE0020DEE7000093000020D4
:103B40009200002094000020704710B5FDF798FB0C
:103B500010BD000000B5B7B034212AA8FCF7A0FBC7
:103B6000142125A8FCF79CFB902101A8FCF798FBE9
:103B700000BF2B48006840F0805029490860084683
:103B8000006800F08050009000BF00BF00BF2548D3
:103B9000006840F44040234908600846006800F48B
:103BA0004040009000BF00BF02202A9001202D90CD
:103BB00010202E900220309000212AA8C1610821F7
:103BC0000162D821416202218162C162FEF752F98D
:103BD00008B1FCF7DAFEFDF713FC08B1FCF7D5FEDF
:103BE0000F20259002202690002027904FF4A0500F
:103BF00028904FF480502990072125A8FDF7F4FF65
:103C000008B1FCF7C2FE4FF48070019000201490C0
:103C100001A8FDF73DFC08B1FCF7B7FE37B000BDC9
:103C200040380240007000401448006840F47000C2
:103C3000124908601248006840F00100104908600D
:103C400000200F49083108600D4800680D49084000
:103C50000B4908600C48091D0860081F006820F423
:103C60008020091F0860002005490C3108604FF0D2
:103C700000600249803908607047000088ED00E06C
:103C800000380240FFFFF6FE1030002410B5024855
:103C9000FEF705FD10BD00007403002010B502689A
:103CA000294B98420ED0B0F1804F0BD0274B984251
:103CB00008D0274B984205D0264B984202D0264B7D
:103CC000984203D122F070024B681A431E4B98426F
:103CD00020D0B0F1804F1DD01C4B98421AD01C4B05
:103CE000984217D01B4B984214D01B4B984211D0CE
:103CF0001A4B98420ED01A4B98420BD0194B98424F
:103D000008D0194B984205D0184B984202D0184B56
:103D1000984203D122F44072CB681A4322F0800308
:103D20004C6943EA040202608B68C3620B688362D9
:103D3000054B984202D0084B984201D10B690363AE
:103D40000123436110BD0000000001400004004059
:103D500000080040000C0040000401400040014009
:103D6000004401400048014000180040001C004091
:103D70000020004030B501F01F05012404FA05F3CE
:103D8000046A9C430462046A01F01F0502FA05F507
:103D90002C43046230BD30B50C46816821F47F416C
:103DA00042EA032525432943816030BD0A468168E4
:103DB00021F0700142F00703194381607047000051
:103DC00030B5056A25F001050562026A4368846919
:103DD000154D2C4024F003040D682C4322F0020200
:103DE0008D682A43114DA84200D103E0104DA8422E
:103DF00006D100BF22F00802CD682A4322F0040257
:103E00000A4DA84202D00A4DA84207D123F480737C
:103E100023F400734D692B438D692B434360846108
:103E20004D684563026230BD8FFFFEFF0000014018
:103E30000004014030B5056A25F010050562026AEC
:103E400043688469184D2C4024F440740D6844EA9A
:103E5000052422F020028D6842EA0512134DA84283
:103E600000D103E0124DA84207D100BF22F080022A
:103E7000CD6842EA051222F040020C4DA84202D061
:103E80000B4DA84209D123F4806323F400634D69EC
:103E900043EA85038D6943EA8503436084614D6885
:103EA0008563026230BD0000FF8FFFFE000001400D
:103EB0000004014030B5056A25F480750562026A88
:103EC0004368C469174D2C4024F003040D682C434B
:103ED00022F400728D6842EA0522134DA84200D1F7
:103EE00003E0124DA84207D100BF22F40062CD6862
:103EF00042EA052222F480620B4DA84202D00B4D0B
:103F0000A84209D123F4805323F400534D6943EAB6
:103F100005138D6943EA05134360C4614D68C563A9
:103F2000026230BD8FFFFEFF00000140000401402F
:103F300030B5056A25F480550562036A4468C26994
:103F40000E4D2A4022F440720D6842EA052223F405
:103F500000538D6843EA0533094DA84202D0094D4C
:103F6000A84204D124F480444D6944EA8514446095
:103F7000C2614D680564036230BD0000FF8FFFFE23
:103F8000000001400004014030B5056A25F4803589
:103F90000562026A4368446D0C4D2C400D682C4349
:103FA00022F400320D8942EA0542094DA84202D0AE
:103FB000084DA84204D123F480334D6943EA052318
:103FC000436044654D688565026230BD8FFFFEFF2A
:103FD000000001400004014030B5056A25F4801559
:103FE0000562026A4368446D0D4D2C400D6844EA39
:103FF000052422F400120D8942EA0552094DA84217
:1040000002D0094DA84204D123F480234D6943EA2C
:104010008523436044654D68C565026230BD00007C
:10402000FF8FFFFE000001400004014030B50B4649
:104030001446026A056A25F001050562816921F0CE
:10404000F00141EA041122F00A021A43816102627E
:1040500030BD30B50B461446056A25F010050562E3
:104060008169026A21F4704141EA043122F0A00220
:1040700042EA03128161026230BD00000A480088F2
:104080000A4A1288904202D16FF03C0070470748FC
:104090000088C0B2064A115C04480088401C034AEC
:1040A00010800846F2E700009800002096000020EB
:1040B000B404002001460B4800880B4A1288801A7D
:1040C000FF2802DD6FF04000704706480088C0B24C
:1040D000064A115403480088401C024A1080002000
:1040E000F2E700009800002096000020B4040020B1
:1040F00070B504460026002500BF605DFFF7DAFFBB
:1041000006466D1C06F1410010B1605D0028F4D137
:1041100070BD90F8241001F0010139B101684968BF
:1041200021F40031826A11430268516090F8241032
:1041300001F00201022907D10168496821F48031A8
:10414000C26A11430268516090F8241001F0040122
:10415000042907D10168496821F48021026B1143C9
:104160000268516090F8241001F00801082907D175
:104170000168496821F40041426B114302685160B3
:1041800090F8241001F01001102907D10168896806
:1041900021F48051826B11430268916090F82410E1
:1041A00001F02001202907D10168896821F400511C
:1041B000C26B11430268916090F8241001F0400135
:1041C000402913D10168496821F48011026C114320
:1041D00002685160016CB1F5801F07D10168496820
:1041E00021F4C001426C11430268516090F8241020
:1041F00001F08001802907D10168496821F400217C
:10420000826C114302685160704738B50446002043
:10421000E067FDF72FF805462068006800F0080009
:1042200008280CD16FF07E402B4600224FF400117D
:104230000090204600F0CEFA08B1032038BD206877
:10424000006800F0040004280CD16FF07E402B467B
:1042500000224FF480010090204600F0BBFA08B124
:104260000320EBE720206067A06700BF002084F8F0
:10427000700000BF00BFE1E770B50546AC6B0020E1
:10428000A4F85A00A4F852002046FEF76DFC70BD59
:104290000168096821F490710268116001688968F9
:1042A00021F00101026891602021816700210166EF
:1042B000704710B504462068006820F0400021686F
:1042C000086020206067002060662046FEF7DAFE66
:1042D00010BD2DE9F0410446B4F85C70A06F2228AF
:1042E00025D12068406A86B2656D06EA07002880FD
:1042F000606D801C6065B4F85A00401EA4F85A0036
:10430000B4F85A00C8B92068006820F49070216899
:1043100008602068806820F0010021688860202003
:10432000A067002020662046FEF7EEFD05E020682D
:10433000806940F0080021688861BDE8F08170B5AF
:104340000446B4F85C60A06F222825D12068406A3A
:1043500085B2F0B22840616D0870606D401C6065E8
:10436000B4F85A00401EA4F85A00B4F85A00C8B96C
:104370002068006820F490702168086020688068D8
:1043800020F00100216888602020A06700202066BE
:104390002046FEF7B9FD05E02068806940F008007E
:1043A0002168886170BD00002DE9F04704460027B0
:1043B000BA462169A068084361690843E16940EA97
:1043C000010820680068D649084040EA08002168D2
:1043D00008602068406820F44050E1680843216884
:1043E0004860D4F81880206A40EA0808206880688D
:1043F00020F4306040EA08002168886000BFC949A5
:104400002068884216D1C848006800F0030030B127
:10441000012808D0022804D0032808D105E001258E
:1044200007E0022505E0042503E0082501E010254A
:1044300000BFC9E0BD492068884216D1BA4800686B
:1044400000F00C0030B1042808D0082804D00C2853
:1044500008D105E0002507E0022505E0042503E07A
:10446000082501E0102500BFAEE0B1492068884270
:1044700016D1AD48006800F0300030B1102808D0E7
:10448000202804D0302808D105E0002507E00225C7
:1044900005E0042503E0082501E0102500BF93E0B6
:1044A000A4492068884216D19F48006800F0C000E7
:1044B00030B1402808D0802804D0C02808D105E0B9
:1044C000002507E0022505E0042503E0082501E0BA
:1044D000102500BF78E098492068884219D1924899
:1044E000006800F4407048B1B0F5807F0AD0B0F5A4
:1044F000007F05D0B0F5407F08D105E0002507E03A
:10450000022505E0042503E0082501E0102500BF91
:104510005AE08A492068884219D18348006800F42B
:10452000406048B1B0F5806F0AD0B0F5006F05D09B
:10453000B0F5406F08D105E0012507E0022505E050
:10454000042503E0082501E0102500BF3CE07C497C
:104550002068884219D17448006800F4405048B17E
:10456000B0F5805F0AD0B0F5005F05D0B0F5405FD0
:1045700008D105E0002507E0022505E0042503E059
:10458000082501E0102500BF1EE06E492068884222
:1045900019D16548006800F4404048B1B0F5804F3B
:1045A0000AD0B0F5004F05D0B0F5404F08D105E076
:1045B000002507E0022505E0042503E0082501E0C9
:1045C000102500BF00E0102500BFE069B0F5004FE6
:1045D00054D1092D3AD2DFE805F005101B392439F2
:1045E00039392F00FDF7D0FB06467000616800EBFB
:1045F0005100B0FBF1F087B22BE0FDF7D5FB06468A
:104600007000616800EB5100B0FBF1F087B220E070
:104610004D49606801EB50006168B0FBF1F087B272
:1046200017E0FDF7D1FB06467000616800EB510012
:10463000B0FBF1F087B20CE04FF48031606801EB21
:1046400050006168B0FBF1F087B202E04FF0010A60
:1046500000BF00BF102F0ED3B7F5803F0BD24FF62F
:10466000F07007EA0009C7F3420049EA0009206830
:10467000C0F80C904DE04FF0010A4AE0092D3AD203
:10468000DFE805F005101B39243939392F00FDF713
:104690007BFB0646606806EB50006168B0FBF1F0FA
:1046A00087B22BE0FDF780FB0646606806EB500002
:1046B0006168B0FBF1F087B220E02449606801EB4B
:1046C00050006168B0FBF1F087B217E0FDF77CFBAA
:1046D0000646606806EB50006168B0FBF1F087B2F7
:1046E0000CE04FF40041606801EB50006168B0FBE2
:1046F000F1F087B202E04FF0010A00BF00BF102FB7
:1047000005D3B7F5803F02D22068C76001E04FF0C3
:10471000010A0020206660665046BDE8F087000070
:10472000F369FFEF00100140903802400044004060
:1047300000480040004C0040005000400014014080
:1047400000780040007C00400048E8010024F400AC
:10475000426F212A1DD1B0F8522062B90268126856
:1047600022F0800203681A600268126842F0400278
:1047700003681A600DE0C16C0A88C2F3080203687E
:104780009A62C26C921CC264B0F85220521EA0F809
:1047900052207047416F21291BD1B0F8521061B9E6
:1047A0000168096821F080010268116001680968E8
:1047B00041F04001026811600BE0C16C09780268A9
:1047C0009162C16C491CC164B0F85210491EA0F836
:1047D000521070472DE9F04104460D4617469846A1
:1047E000069E45E0701C002842D0FCF743FDA0EB7C
:1047F0000800B04200D8B6B92068006820F4D07034
:10480000216808602068806820F0010021688860C5
:1048100020206067A06700BF002084F8700000BF00
:104820000320BDE8F0812068006800F00400F8B1C2
:104830002068C069C0F3C020D0B14FF40060216887
:1048400008622068006820F4D07021680860206841
:10485000806820F001002168886020206067A067E0
:10486000E06700BF002084F8700000BF0320D8E795
:104870002068C0692840A84201D1012000E0002042
:10488000B842AFD00020CCE710B50248FEF76EF971
:1048900010BD0000B405002000BFFEE72DE9FC417B
:1048A00001F010FCC7B200240AE0FFF7CFF805467C
:1048B00005F13D0010B1E8B20DF80400601CC4B26F
:1048C000202D03D00D2D01D0072CEEDB1C480560F8
:1048D0000021601E0DF80010002413E004EB4401D9
:1048E000184A02EB81006946FBF7E5FC40B904EB8E
:1048F0004401144A02EB810188688047064603E0C0
:10490000601CC4B2BC42E9DB00BFBC4204D16FF002
:1049100041060DA0FFF7ECFB00BFFFF797F8064636
:104920001EB106F13D000028F7D10DA0FFF7E0FB16
:1049300001220D490D48FEF769FB0020BDE8FC810E
:104940000000002004000020434F4D414E444F2002
:104950004E414F20454E434F4E545241444F20004C
:104960000D203E20000000009A000020B405002029
:104970002DE9FC41002620216846FFF79DF8684696
:10498000FEF7A0FB0446601C30B10B2C04DAE0B249
:10499000FBF7EAFF07460BE01DA0FFF7A9FB01228A
:1049A0001F492048FEF732FB4FF0FF30BDE8FC8185
:1049B00020216846FFF780F86846FEF783FBC5B202
:1049C000FF2D0ADD18A0FFF793FB012214491548BB
:1049D000FEF71CFB4FF0FF30E8E70D216846FFF7BC
:1049E0006BF86846FEF76EFB0646701C30B1FF2E72
:1049F00004DCF2B229463846FCF736FC0FA0FFF77C
:104A000077FB012206490748FEF700FB0020CDE7AF
:104A10006572726F20706F72745F616464722100DE
:104A20009A000020B40500206572726F2070696ED4
:104A30005F73657474696E672100000057524954B2
:104A400045204449474954414C204F5554505554F2
:104A5000000000000FB4054B10B503A9044A0298EA
:104A600000F002FE10BC5DF814FB0000515F00086E
:104A7000CC00002003B401984100009850EAC12006
:104A800018BF04204A0D18BF40F0010040F2FF7229
:104A9000B2EB515F08BF40F00200012808BF0520BB
:104AA00002B0704702480068C0F30220704700005F
:104AB0000CED00E010B5002804DB0A07130E054AD0
:104AC000135406E00A07140E034A00F00F031B1FDD
:104AD000D45410BD00E400E018ED00E00000000038
:104AE0002DE9F04D2DED040B2DED0A8B9AB0DDE98B
:104AF0002550279CDDF890A025F0004624F00048C2
:104B0000BAF1000F14BF0121002101EB4502F84961
:104B100053184A1093422AD3002814BF01230023BC
:104B200003EB44030B44F3498B4220D358EA0001C2
:104B30009FEDF19B72D0DFF8C8B35D4503D1BAF1A8
:104B4000000F05D184E0BAF1000F08BF002100D0AA
:104B5000012101EB450111F5001F08D8002814BF01
:104B60000121002101EB440111F5001F0BD99DED3E
:104B7000261B9DED240B1AB0BDEC0A8B04B0BDE8DA
:104B8000F04D00F071BC0027002DBCBFDD49884509
:104B900021DADD498845A8BF02271CDAC3451ADCA3
:104BA000DA4901EB2851142908DDC1F1340220FA59
:104BB00002F101FA02F282420DD108E058B9C1F1C6
:104BC000140228FA02F101FA02F2424503D101F07F
:104BD0000101C1F1020756EA0A0120D1002C1EDAB8
:104BE000002D18BF022F01D0012F0AD0022000F0A3
:104BF00073FC1AB0BDEC0A8B04B0BDE8F04D00F0B8
:104C000023BC022000F068FC00F01EFCB1EE400B5B
:104C10001AB0BDEC0A8B04B0BDE8F08D18E09FED32
:104C2000BCAB9FEDBD8B00287DD1B64880451CD123
:104C300005F1804010F5801008BFBAF1000F07D0D1
:104C4000B34508DC002CA8BF9DED260BE0DA07E099
:104C5000B0EE490BDCE7002CB8BF9DED260BD5DB91
:104C6000AF48784490ED000BD2E7D84548D1002CEE
:104C700043DA2EB186423AD1BAF1000F3DD126E097
:104C8000BAF1000F13D0022000F026FC00F0FCFB6C
:104C90008DED020B9DED240B8DED000B10EE900AB7
:104CA000039961F31E0003909DED020BB0E78DEDBB
:104CB00002AB9DED240B1AEE901A10EE900A8DEDCA
:104CC000000B61F31E0003909DED020BA0E78DED3C
:104CD000028B9DED240B18EE901A10EE900A8DEDCC
:104CE000000B61F31E0003909DED020B90E704DAC8
:104CF0009DED241B89EE010B8AE79DED240B87E7D0
:104D000086421ADAB4F1804F04BF9DED240B20EEE9
:104D1000000B3FF47DAFA4F10050B0F1FF500CD177
:104D2000002D0ADB00E008E09DED240B51EC100B98
:104D300001F0CAF941EC100B6AE79DED240B51EC30
:104D4000100B01F0F9F8BAF1000FCDE90E0140D1D6
:104D50009FED750B46B3A6F1E040B0F17F600ED039
:104D60005E4536D1002D00DA97B3022F0CBF01202B
:104D70004FF0FF3000EE100AB8EEC00B48E7002DF0
:104D800001DD002C0DDA002D01DD002C1DDB002DD6
:104D900014DA002C12DB012F08BF9FED650B3FF4E6
:104DA00037AFB0EE4A0B33E7022F18BF002D0CD0FF
:104DB000012F0AD1002DFFF62BAF06E0002DB8BF62
:104DC000002C06DA012F3FF423AFB0EE480B1FE7AB
:104DD00019E0012000EBE57050EA070113D0791EBD
:104DE000B0EE498B084308BF9FED538B5448002514
:104DF00080457ADD53495448884514DDB0420DDBC7
:104E0000002C19DB2CE0012000F066FB1AB0BDEC91
:104E10000A8B04B0BDE8F04D00F02ABBB34502DCBC
:104E2000002C09DC1CE0864202DA002C18DA03E0D0
:104E30005E4528DD002C13DD022000F04DFB00F064
:104E400023FB8DED020B28EE0A0B8DED000B10EE0F
:104E5000900A039961F31E0003909DED020BD7E6C3
:104E6000022000F039FB00F01BFB10EE901A18EE48
:104E7000900A8DED020B8DED008B61F31E00039007
:104E80009DED020BC4E69DED0E0B9FED313B30EE28
:104E9000490B8DED040B20EE002B9DED041B9FEDC7
:104EA0002E0B01EE430B9DED043B9FED2D1B03EEFE
:104EB000401B9DED040B9FED2E3B22EE012B9FED41
:104EC0002A1B20EE011B20EE030B9FED2B3B02EE75
:104ED000430B31EE002B8DED022B02959DED022B45
:104EE00032EE411B30EE411B21E149E000000000A1
:104EF000FFFF1F00FFFF0F00000000000000F03F59
:104F00000000F03F0000F07F0000404301FCFFFF85
:104F1000000000000000F07F000000000000000022
:104F2000721500000000000000000000000000807A
:104F3000000000000000F0FF000000000000F0BFD3
:104F40000000E0410000F043FFFFEF3F00000000E1
:104F5000000000000000D03F555555555555D53F30
:104F6000000000000000E03F000000604715F73F30
:104F700044DF5DF80BAE543EFE822B654715F73FCC
:104F80000020B6F5801F0BDA9DED0E0B9FEDEC1B9C
:104F90006FF0340020EE010B10EE906A8DED0E0BD9
:104FA000E94A00EB2650C6F31301A0F2FF3741F0A7
:104FB0007F6040F040509142D8BF002408DDE34AB2
:104FC0008A42C8BF012403DC0024A0F580107F1CA6
:104FD000DF49794401EBC4010F9091ED001B9DED79
:104FE0000E2B9DED0E0BDB4931EE023B30EE410BFB
:104FF00089EE032B20EE02AB8DED02AB79440295D6
:1050000091ED003B4FF0005141EA600000EB84401D
:105010008DED043B00F5002005909DED043B9DEDDA
:10502000044B2AEE0ACB33EE411B9DED0E3BCA48E2
:10503000062133EE411B9DED023B03EE440B03EED4
:10504000410B20EE02BBB0EE4C0B784400F0C4F9EB
:105050002CEE0C1B20EE010B9DED021B31EE0A1B0A
:105060000BEE010B9DED021B21EE011B9FEDBC2BF6
:1050700031EE023B33EE003B8DED043B04959DED9C
:10508000043B33EE422B32EE411B30EE412B9DEDC3
:10509000020B9DED041B20EE011B9DED040B2BEE7E
:1050A000000B02EE0A0B31EE002B8DED022B029568
:1050B0009DED022B32EE411B30EE410B9DED021BAC
:1050C0009FEDA92B21EE021B9DED022B9FEDA83B2E
:1050D00022EE032B9FEDA83BA94800EE032B78445A
:1050E00000EBC40090ED000BA64832EE000B02EE80
:1050F000107AB8EEC22B8DED042B31EE003B7844D4
:1051000000EBC4009DED044B90ED002B33EE023B11
:1051100033EE043B8DED023B02959DED023B33EEF9
:10512000443B33EE422B32EE411B30EE411B9DEDF2
:10513000260B954A8DED000B00959DED260B9DED00
:10514000002B30EE420B9DED022B20EE020B9DED6D
:10515000262B02EE010B9DED001B9DED022B21EE97
:10516000021B8DED021B30EE011B11EE900A11EEB9
:10517000101A8DED001B904224DB821A11430ED1D0
:105180009FED831B9DED002B9DED023B30EE011B3F
:1051900032EE432BB4EEC21BF1EE10FA26DD0220F4
:1051A00000F09AF900F070F910EE901A18EE900ADB
:1051B0008DED020B8DED008B61F31E0003909DEDD4
:1051C000020B25E5744B20F000429A420ED3734A3D
:1051D000024411437FF444AE9DED022B31EE421B9D
:1051E000B4EEC01BF1EE10FABFF63AAE20F000416B
:1051F0006B4A6C4B002402EB21529942D8BF9DEDC3
:10520000021B27DD511C4FF4801222FA01F10144E8
:10521000654BC1F30A527B44A2F2FF3293ED001BAF
:10522000624B8DED041BD34021EA0303C1F313014C
:1052300041F48011C2F1140221FA02F4059300280E
:10524000B8BF64429DED021B9DED042B31EE421B65
:105250008DED021B30EE011B8DED041B04959DEDC1
:10526000041B9FED532B9DED023B21EE021B9DED98
:10527000042B32EE432B30EE420B9FED4F2B20EEF2
:10528000020B9DED042B9FED4E3B4F48052102EE96
:10529000030B31EE002B8DED002B32EE411B30EE77
:1052A00041AB9DED000B20EE000B8DED040B78441F
:1052B00000F092F89DED001B9DED042B02EE401BCB
:1052C0008DED021B9DED000B20EE010B9FED402BA1
:1052D00031EE422B80EE021B9DED002BB0EE4A0B0F
:1052E00002EE0A0B31EE400B9DED001B30EE410B40
:1052F00039EE400B10EE900A8DED000B00EB0450E0
:1053000001150029C8BF019013DC224651EC100B97
:10531000FBF79CF9FFF7AEFB042808BF00F0C0F8CC
:1053200022469DED000B51EC100BFBF78FF9CDE9F8
:1053300000019DED000B28EE000B69E40000000069
:1053400000000000000040438E9803007AB60B0076
:105350007A110000D8110000321100000000000096
:105360000000000000000840000000E009C7EE3F18
:10537000F5015B14E02F3EBEFD033ADC09C7EE3FAA
:105380008E1000005E100000000090400000000041
:10539000FE822B654715973C00CC904000346F3F50
:1053A00001FCFFFF0000E03FBE0F0000FFFF0F0009
:1053B00000000000432EE63FEF39FAFE422EE63FA2
:1053C000396CA80C615C20BEFE0E000000000000DD
:1053D0000000000000000040491E00EBC102B0EEDA
:1053E000401B92ED000B31F006020DD0491E00EB80
:1053F000C102B0EE403B92ED002B31F00602B0EE60
:10540000420B03EE010BF1D1022914D004290AD07A
:10541000062918BF704790ED0A2B00EE012B90ED86
:10542000080B02EE010B90ED062B00EE012B90ED28
:10543000040B02EE010B90ED022B00EE012B90ED20
:10544000000B02EE010B70479FED031B9FED042B39
:1054500081EE020B70470000000000000000F03FEA
:10546000000000000000000030EE010B704700005B
:105470009FED031B81EE010B704700000000000050
:1054800000000000000000009FED030B20EE000B69
:1054900070470000000000000000000000000070E5
:1054A0009FED030B20EE000B704700000000000092
:1054B000000000000000001002E008C8121F08C130
:1054C000002AFAD170477047002001E001C1121F85
:1054D000002AFBD1704700000149086070470000B6
:1054E000D00000202DE9FF5F82B00021DDE904300B
:1054F000020DDDF840B0034318D044F61050A2F27C
:10550000FF3242431514119801281FD0A5EB0B0060
:10551000401C5FEA000A4FF000064E4FDFF838915A
:10552000B046504615D5CAF1000413E01198012485
:105530004AA3012801D16FEA0B010298119AC0E930
:105540000031C0E9024206B0BDE8F09FCBF1000097
:10555000DFE704460021404A491842EB0450CDE9F8
:10556000001012E0E00707D032463B46404649466D
:10557000FAF78BFF8046894632463B46104619466D
:10558000FAF783FF06460F466410002CEAD1DDE9E6
:105590000401DDE90023BAF1000F06DAFAF775FF1E
:1055A00042464B46FAF771FF05E0FAF7E0FF424644
:1055B0004B46FAF7DCFF04460E460022284BFBF769
:1055C00075F803D84FF0FF30014607E00022254B65
:1055D00020463146FAF7B2FEFBF74FF8102409E0F7
:1055E000002C0ADB0A220023FAF722FE039B30324A
:1055F0001A55641E50EA0102F2D1641C039AC4F1E8
:1056000011031444119A012A03D0012208430DD139
:105610000AE0084304D000204FF0110B119072E70C
:10562000A3EB0B056D1E0DE05B4504DD4FF00002A2
:1056300005F1010504E003DA4FF00002A5F10105D0
:10564000002AECD002981199C0E90231C0E9004566
:1056500079E70000000014400000F03F3000000037
:105660000000F0430000E03F2DE9FF4F95B09B465E
:105670008946064600250FE2252877D100242746D3
:10568000F84A0121059400E0044316F8013F203B4D
:1056900001FA03F01042F7D130782A2811D06FF0C8
:1056A0002F033078A0F13002092A16D8059A44F069
:1056B000020402EB820203EB42021044761C0590C6
:1056C000EFE759F8042B0592002A03DA504244F41C
:1056D0000054059044F00204761C30782E2816D130
:1056E00016F8010F44F004042A280DD06FF02F02A1
:1056F0003078A0F13003092B09D807EB870302EBC0
:105700004303C718761CF3E759F8047B761C3078FE
:105710006C280FD006DC4C2817D068280DD06A28DA
:1057200014D104E0742810D07A280FD10DE044F48D
:1057300000140AE044F4801401E044F44014727848
:10574000824202D104F58014761C761C30786628DB
:105750000BD013DC582877D009DC002875D04528F9
:10576000F6D04628F4D047281AD19DE118E06328E6
:1057700035D0642879D0652812D195E1702873D08E
:1057800008DC6728F1D069286FD06E280DD06F280B
:1057900006D1B5E073282CD0752875D0782874D040
:1057A0005A46179990476D1C75E1C4F302500228C0
:1057B00009D003280DD0D9F8001004280DD00D60B1
:1057C00009F1040967E1D9F80010EA17C1E90052AC
:1057D000F6E7D9F800100D80F2E70D70F0E719F840
:1057E000041B8DF8001000208DF80100EA4601200E
:1057F00003E059F804AB4FF0FF3061074FF00001B0
:1058000002D40DE008F101018846B9420FDA804563
:10581000F8DB1AF808100029F4D108E008F10101BA
:1058200088468142FADB1AF808100029F6D105985B
:105830005B46A0EB080721463846179A00F094FA19
:10584000284400EB080507E04DE029E10DE01AF8D7
:10585000010B5A4617999047B8F10108F7D25B46F9
:1058600021463846179A13E142E00A220092C4F317
:1058700002524FF0000A022A08D059F804CB032A3A
:105880004FEAEC710AD00DE029E02AE009F10701A6
:1058900021F00702F2E802C1914609E00FFA8CFC00
:1058A0004FEAEC71042A03D14FFA8CFC4FEAEC71F9
:1058B000002907DA0A460021DCF1000C61EB020145
:1058C0002D2202E0220504D52B228DF8042001228E
:1058D00003E0E20701D02022F7E7904659E00A21D1
:1058E00002E010220DE010214FF0000A00910BE0C1
:1058F00010224FF0000A44F004040827009203E04D
:1059000008224FF0000A0092C4F30252022A05D086
:1059100059F804CB0021032A08D009E009F1070156
:1059200021F00702F2E802C1914605E01FFA8CFC63
:10593000042A01D10CF0FF0C4FF00008220728D5F3
:10594000702806D0009B83F0100353EA0A0305D0A9
:105950000EE040228DF80420012208E05CEA0102FA
:1059600006D030228DF804208DF8050002229046E2
:10597000009B83F0080353EA0A030AD15CEA0102A0
:1059800001D1620705D530228DF804204FF00108BF
:105990007F1E582804D034A003900EA802900DE07A
:1059A00036A0F9E753466046009AFAF741FC844670
:1059B0000398825C0298401E029002705CEA01002B
:1059C000F0D1029806A9081A00F1200A600702D552
:1059D00024F4803400E00127574502DDA7EB0A00DC
:1059E00000E0002000EB0A01009005984144401AB5
:1059F0000590E00306D45B462146179A059800F00F
:105A0000B3F90544002706E001A85A46C05D17997E
:105A100090476D1C7F1C4745F6DBE0030CD55B46C9
:105A20002146179A059800F09FF9054404E03020BC
:105A30005A46179990476D1C0099481E00900029FE
:105A4000F5DC08E0029802995A460078491C029158
:105A5000179990476D1CBAF10001AAF1010AF1DC17
:105A600065E1000009280100303132333435363722
:105A7000383961626364656600000000303132339A
:105A8000343536373839414243444546000000003A
:105A900000F058F90544761C307800287FF4ECAD0E
:105AA00019B02846BDE8F08F620700D4062709F137
:105AB000070222F0070CFCE80223E14603F000484D
:105AC0005FEA080C02D00FF2702C0DE05FEA045C74
:105AD00002D50FF2682C07E05FEAC47C02D00FF217
